:020000040800F2
:10000000F8080020A901000847390008A92D0008B8
:1000100081380008891500084942000800000000E6
:10002000000000000000000000000000EF3C00089D
:100030008B15000800000000ED3C0008F13C0008B2
:10004000C3010008C3010008C3010008C301000880
:10005000C3010008C3010008C3010008C301000870
:100060008D150008C3010008C3010008C301000882
:10007000C3010008C3010008C3010008C301000850
:10008000C3010008C3010008C3010008C301000840
:10009000C3010008C3010008C3010008931500084C
:1000A000C3010008C3010008C3010008C301000820
:1000B000C3010008C3010008C3010008C301000810
:1000C000C3010008C3010008C3010008C301000800
:1000D000C3010008C3010008C30100083D42000835
:1000E000C3010008C3010008C301000800F002F8C2
:1000F00000F04AF80AA090E8000C82448344AAF178
:100100000107DA4501D100F03FF8AFF2090EBAE875
:100110000F0013F0010F18BFFB1A43F0010318473B
:1001200044A3000064A30000103A24BF78C878C13B
:10013000FAD8520724BF30C830C144BF04680C60ED
:10014000704700000023002400250026103A28BF35
:1001500078C1FBD8520728BF30C148BF0B60704739
:10016000662907F0EE84642900F07680002070474D
:100170001FB500F0BDFC04000020002106F070FC5B
:10018000E0601FBD10B510BD00F0B6FD1146FFF7D1
:10019000EFFF05F0F5FB00F0D4FD03B4FFF7F2FF2D
:1001A00003BC00F017FE00000948804709480047DB
:1001B000FEE7FEE7FEE7FEE7FEE7FEE7FEE7FEE717
:1001C000FEE7FEE704480549054A064B7047000074
:1001D000533D0008ED000008F8020020F808002058
:1001E000F8040020F804002010B54C1084EA5304F1
:1001F00004D54042C1F1000138BF491E1B4204D55D
:100200005242C3F1000338BF5B1E00F046F914F000
:10021000804F04D04042C1F1000138BF491E14F0A4
:10022000004F04D05242C3F1000338BF5B1E10BD23
:100230000FB41CB5074B06AA7B446946009005988D
:1002400000F01BFC0020694600F02AFC1CBC5DF895
:1002500014FB0000650800002DE9F041064600246B
:1002600010687529314616A510D0AFF3008000281C
:1002700002DA404213A507E031688A0701D512A5CA
:1002800002E0490704D511A5012401E0AFF3008085
:1002900000210A2206F1240709E0B0FBF2FCB0FBC2
:1002A000F2F302FB1C00303078541846491C002839
:1002B000F3D123462A463046BDE8F04100F06FB93D
:1002C000000000002D0000002B00000020000000B6
:1002D0002DE9F0474FF0000A89460446C0F820A0F7
:1002E0002046E1688847002876D0252806D0D4E942
:1002F00001219047206A401C2062F1E7E168204616
:1003000000258847C4F81CA006460027C4F818A09A
:100310002A2E09D0304604F083F838B304EB87085E
:10032000303EC8F8186019E059F8041B204604EB69
:1003300087029161E1688847012F064618D1E0697C
:10034000002820DA25F020051DE0D8F8180000EB81
:10035000800006EB40003038C8F818002046E168FD
:100360008847064604F05CF80028EED1012F0AD039
:100370002E2E08D12046E16888477F1C0646022FB2
:1003800045F02005C4DBA069002803DA404245F0AF
:100390000105A061E80701D025F01005B6B1A6F16E
:1003A0004100192802D8203645F400654A463146F6
:1003B000204625604D46FFF7D3FE58B1012806D0F0
:1003C000ED1D25F0070000F1080989E704E005F1BB
:1003D000040985E730468AE7206ABDE8F08740EAED
:1003E000010310B59B070FD1042A0DD310C808C90B
:1003F000121F9C42F8D020BA19BA884201D90120B4
:1004000010BD4FF0FF3010BD1AB1D30703D0521CFE
:1004100007E0002010BD10F8013B11F8014B1B1B39
:1004200007D110F8013B11F8014B1B1B01D1921EA3
:10043000F1D1184610BD02F0FF0343EA032242EA5D
:10044000024200F034BB4FF0000200B51346944660
:100450009646203922BFA0E80C50A0E80C50B1F11C
:100460002001BFF4F7AF090728BFA0E80C5048BF30
:100470000CC05DF804EB890028BF40F8042B08BFCE
:10048000704748BF20F8022B11F0804F18BF00F8CA
:10049000012B704770477047704753EA020C00F019
:1004A00069802DE9F04B4FF00006002B1FBFB3FA17
:1004B00083F503FA05F424FA05F65E4012BF1643ED
:1004C000B2FA82F502FA05F4C5F120051EBF22FA40
:1004D00005FC44EA0C04203556EA044C4FEA144467
:1004E00018BF641C4FF000084FF00009904271EBF8
:1004F000030C39D3002919BFB1FA81F701FA07F6C5
:10050000B0FA80F700FA07F6C7F120071EBF20FAFD
:1005100007FC46EA0C062037B6FBF4FCA7EB050700
:10052000103F07F01F0BCBF120060CFA0BFB2CFA47
:1005300006F644BFB3460026202FA4BF5E464FF008
:10054000000B5BEA060C08BF4FF0010B19EB0B091F
:10055000ABFB027C48EB0608C01B06FB02CC0BFB86
:1005600003CC71EB0C01C1E70B46024641464846FD
:10057000BDE8F08B13B54FF000004FF00001AFF372
:100580000080BDE81C40704710B500F0B5FA006867
:1005900010BD10B5044600F0AFFA046010BD2DE99F
:1005A000F0470D4699469246044600F1240801683A
:1005B000880604D5E06921F01001216000E00120E7
:1005C000A84201DD471B00E00027A1697A1902EB70
:1005D0000900081AA0612078C00602D42046AFF3B3
:1005E0000080002608E0D4E901211AF806009047AF
:1005F000206A401C761C20624E45F4DB2078C00641
:100600000AD52046AFF3008006E0D4E9012130206E
:100610009047206A401C2062381EA7F10107F4DCD5
:1006200007E0D4E9012118F805009047206A401C32
:100630002062281EA5F10105F3DC2046AFF30080FF
:100640002078000602D50220BDE8F0870120FBE7F4
:1006500070472DE9FF4F0C461E464FF0FF378BB019
:10066000D2E90001DDF860800A908A46C1F30A559C
:1006700005B93D46002108464FF00000BAF1000FD1
:1006800000F4400005DA00EB80004FF4400101EA7D
:1006900050004FEA9059B9F1010F00DDB9460A98B0
:1006A00050EA4A000ED044F61050A5F2FF354543FB
:1006B0002F14B8F1000F1ED07542291E1EDDC9F19E
:1006C00000021CE0B8F1010F4FF0000001D0302112
:1006D00003E0F24305E02154401CB042FBDB30460E
:1006E0000022002121540B99C1F80880C1E90020A3
:1006F0000FB0BDE8F08FBD1B6D1CDEE74A4600DA87
:10070000694206A800F082FA06AB93E8070003AB43
:1007100083E8070050460A9900F063FB8DE8070064
:10072000A0F500501F3800900398002D0ADD42F21A
:100730001F014A460844002303A90390684600F0BD
:10074000CCFD09E0A0F500504A461F38002303A95C
:100750000390684600F0D6FD8DE807000004000C09
:1007600003D04FF0FF30410800E01046B8F1000F11
:1007700003D00022009215461EE0751E05D400F03D
:10078000BFF9303262556D1EF9D5B34601220843D8
:1007900002D000227F1C04E02078302801D1002202
:1007A0007F1E002A099784D01DE0112D07DA00F082
:1007B000A7F9303262556D1C50EA0102F5D10843A9
:1007C00002D00098C8B10EE00021681E05E0235C4D
:1007D000625C63542254401E491C8142F7DBAB46E5
:1007E000A81B401E0990002004F80B000B98099AE2
:1007F000C0F80880C0E9002B7AE711264FF0000806
:1008000057E72DE9F04F88460446D21D22F0070134
:1008100091B0D1E90001CDE90A0103F075FD02466E
:100820000B98C00F01D02D2007E02068810701D56B
:100830002B2002E0202101EAC000032A099001D008
:10084000072A05DB03464146204600F09FF90BE1ED
:100850002078800601D5E06900E00620B8F1650F38
:10086000814606D0B8F1660F18D0B8F1670F70D185
:1008700031E00020B9F1110F009001DB112301E0FC
:1008800009F101030AAA01A90CA8FFF7E2FEDDE9BC
:100890000C70002609F10105834647E001204B4614
:1008A00000904FF000470AAA01A90CA8FFF7D1FE5B
:1008B000DDE90DB00C995D46002610B909F1010083
:1008C0000D18B9EB050003D4C0F1FF3609F101059D
:1008D000A5EB09002BE0B9F1010F01DA4FF0010996
:1008E0000020B9F1110F0090484601DD112300E00E
:1008F00003460AAA01A90CA8FFF7ABFEDDE90C70BC
:100900004D4600268346207800070AD4AB4500DA1E
:100910005D4601A8012D04DD411911F8011C3029A3
:1009200007D04F4502DA17F1040F04DA012082469E
:100930000FE06D1EEEE7002F02DCED1B3E4403E0EE
:10094000781CA84200DD7D1CB81B00F1010A4FF0A5
:1009500000472078000703D4AA4501DB4FF0FF3A97
:100960000021B7F1004F0DF143088DF8431024D05A
:1009700002202B23002F01DA7F422D230A21021EA1
:10098000A0F1010000DC5FB197FBF1FC97FBF1F2F5
:1009900001FB1C7C17460CF1300C08F801CDEEE78A
:1009A000A8F1010003702188090501D5452100E067
:1009B0006521A0F1010800F8011C09980FA9A1EB1D
:1009C0000807FF1D00B10120411901EBEA70A16980
:1009D0003844081A401EA0612078C00602D4204680
:1009E000AFF30080099828B1D4E901219047206A2B
:1009F000401C20622078C00622D52046AFF300803C
:100A00001EE0002E04DBB34502DD01A8805D00E09E
:100A10003020D4E901219047206A401C2062761CD6
:100A2000AAF101005FEA000A0AD100F061F8C0688B
:100A30000168405CD4E901219047206A401C206293
:100A4000281EA5F10105DCDC07E0D4E9012118F836
:100A5000010B9047206A401C2062381EA7F1010755
:100A6000F3DC2046AFF30080032011B041E6000024
:100A700001694A1C02610878704700B58FB0CDE962
:100A800001310021059105497944CDE90310114652
:100A90006846FFF71DFC0FB000BD0000E5FFFFFF3B
:100AA0000A6802F8010B0A6070474FF0000204293F
:100AB000C0F0128010F0030C3FF4C7ACCCF1040C72
:100AC000BCF1020F18BF00F8012BA8BF20F8022BC1
:100AD000A1EB0C01FFF7B9BC5FEAC17C24BF00F8B1
:100AE000012B00F8012B48BF00F8012B70470000D4
:100AF00000487047B8020020004870479802002064
:100B000030B5B0F10A024FEA900E71F100034EEADF
:100B1000817EB0EB0E0061EB91014FEA101E4EEAB0
:100B2000017E10EB0E0041EB11114FEA102E4EEA40
:100B3000016E10EB0E0041EB11214FEA104E4EEA10
:100B4000014E10EB0E0041EB1141401841F1000144
:100B50004FEAD00040EA41704FEAD10110EB800526
:100B60004FEA810444EA907444EB01046D1944EBAC
:100B70000404521BA3414FF0000348BF0A3200D5C2
:100B800030BD401C41F1000130BD00002DE9F041B5
:100B90001F46044603260168072A01F4006004DBAF
:100BA00008B116A505E016A503E008B115A500E0FB
:100BB00015A521F010002060A069C01EA0610FB132
:100BC000401EA0612046AFF300804FB1D4E901215F
:100BD00038469047206A401C2062C01C206206E014
:100BE000206AFAE7D4E9012115F8010B9047761E37
:100BF000F8D22046AFF30080BDE8F0814E414E00B0
:100C00006E616E00494E4600696E66002DE9F04740
:100C1000814616468AB0354878440DC88DE80D00E7
:100C200032487844801C03AC0DC884E80D0041F6BE
:100C30009B300844372190FBF1F290FBF1F5A5F1D0
:100C4000800501FB12041B3C02D56442012000E038
:100C50000020DFF898A080460027FA44AAF1BE0AD7
:100C60000EE0E0070AD03246684607EB4701012351
:100C70000AEB810100F046FB8DE8070064107F1C41
:100C8000002CEED1194F7F44AE3F19E0E80715D094
:100C900007EB04100DF1180A90E80E008AE80E0028
:100CA000C068F04201D1981908903246012306A984
:100CB00003A800F027FB03AB83E807006D10641C5A
:100CC000002DE3D14FF0010332466946B8F1000F21
:100CD00003A802D000F001FB01E000F013FBC9E91A
:100CE0000001C9F808200AB0BDE8F087309800007C
:100CF00000487047980200207546FFF7F9FFAE469E
:100D000005006946534620F00700854618B020B517
:100D1000FFF758FABDE820404FF000064FF00007FB
:100D20004FF000084FF0000B21F00701AC46ACE893
:100D3000C009ACE8C009ACE8C009ACE8C0098D4600
:100D4000704710B50446AFF300802046BDE8104060
:100D5000FFF723BA4FF0013C50F8042B51F8043B45
:100D60009A4221D1A2EB0C03934313EACC1317D17F
:100D700050F8042B51F8043B9A4215D1A2EB0C0316
:100D8000934313EACC130BD150F8042B51F8043BD6
:100D90009A4209D1A2EB0C03934313EACC13DBD0A4
:100DA0004FF00000704700BFD01A01BAB1FA81F1CC
:100DB00001F0180122FA01F0CB40C1F12001DBB2B1
:100DC000C0B2C01A2CFA01F3D11A914311EAC3112F
:100DD000E6D1704701491820ABBEFEE726000200AD
:100DE00070475FEA400C08BF91F0000F4FEA8C2378
:100DF0004FEAC12243EA51514FEA1C5018BF00F597
:100E0000F0404FEA300018BF41F000415FEA6C5CEF
:100E100000F02980BCF1FF3F08BF40F080407047E0
:100E2000130C06BF12044FF0100C4FF0000C130E01
:100E300004BF12020CF1080C130F04BF12010CF1D5
:100E4000040C930F04BF92000CF1020CD30F04BFEB
:100E500052000CF1010C11464FF00002A0F11F00EE
:100E6000A0EB0C00704711F0004F08BF704731F045
:100E700000413FF4D5AF0B0C06BF09044FF0100C36
:100E80004FF0000C0B0E04BF09020CF1080C0B0F05
:100E900004BF09010CF1040C8B0F04BF89000CF195
:100EA000020CCB0F04BF49000CF1010CCCF1200364
:100EB000A0EB0C0022FA03F302FA0CF241EA030160
:100EC00000F10100704720F07F4C80EA030023F01E
:100ED0007F47ACEB070303F57C5300F0004003F1C0
:100EE000FF032DE980494FEA154B09B44FEA14433B
:100EF00025EA0B4E24EA03480FF2042606EB1327DB
:100F000049083E785FEA320203FB0667C7F500072F
:100F100007FB06F64FEA54374FEAD64606F10206BB
:100F200007FB066CCCF1005C4FEA1C472CEA074C2F
:100F300007FB06F40CFB06F504EB15464FEA961684
:100F400034BF00204FF000404FEAD13706FB07FCCA
:100F50004FEA1C4C0CFB0BF7D21B03FB0CF761EBAD
:100F600007010CFB0EF7B0EB074072EB17420CFBCE
:100F700008F734BFA2EB0742B2EB074261EB17411F
:100F80004FEA0C444FEA910706FB07FC4FEA1C4C62
:100F90000CFB0BF7B0EBC74072EB573203FB0CF7BF
:100FA00034BFA2EBC742B2EBC74261EB57310CFB37
:100FB0000EF7B0EBC70072EB57720CFB08F734BFAB
:100FC000A2EBC702B2EBC70261EB5771039F4FEA76
:100FD000816141EA921104EBCC044FEAD1374FEA28
:100FE000826206FB07FC42EA90124FEA80604FEAF9
:100FF0001C4C0CFB0BF7D21B03FB0CF761EB07013E
:101000000CFB0EF7B0EB074072EB17420CFB08F736
:1010100034BFA2EB0742B2EB074261EB17414FEA44
:101020008C554FEA910704EB9C2406FB07FC4FEA22
:101030001C4C0CFB0BF7B0EBC74072EB573203FBB9
:101040000CF734BFA2EBC742B2EBC74261EB57319A
:101050000CFB0EF7B0EBC70072EB57720CFB08F7F6
:1010600034BFA2EBC702B2EBC70261EB577115EBBD
:101070004C254FEA816141EA92114FEA82624FEAC0
:10108000D13742EA901206FB07FC44F100044FEA14
:1010900080604FEA1C4C0CFB0BF7D21B03FB0CF7D8
:1010A00061EB07010CFB0EF7B0EB074072EB174248
:1010B0000CFB08F734BFA2EB0742B2EB074261EB2F
:1010C000174115EB1C154FEA813141EA92414FEA75
:1010D000823242EA90424FEA80304FEA0C7644F185
:1010E000000448EA03434EEA0B484FF0000EB2EB0F
:1010F000080C71EB030724BF624639464EEB0E0E17
:101100004FF0000B0018524149414BEB0B0BB2EB77
:10111000080C71EB03077BF1000B24BF62463946D4
:101120004EEB0E0E4FF0000B0018524149414BEBB5
:101130000B0BB2EB080C71EB03077BF1000B24BF28
:10114000624639464EEB0E0E51EA020718BF46F0D2
:10115000010616EB0E7655F1000254F1000103D59D
:10116000BDE88901BDE80088BDE88901BDE8004807
:10117000B619524141EB0101A3F101037047808090
:101180007F7E7D7C7B7A79787776767574737271E1
:1011900071706F6E6E6D6C6C6B6A6A696868676699
:1011A00066656464636362616160605F5F5E5E5D2B
:1011B0005D5C5C5B5B5A5A5959585857575656559F
:1011C00055555454535352525251515050504F4F01
:1011D0004F4E4E4D4D4D4C4C4C4B4B4B4A4A4A4951
:1011E0004949484848474747474646464545454494
:1011F0004444444343434342424242414141002B21
:101200009C4630D477002BD01CB54FEA370703B487
:101210004FF010004FF01001BAF1000F06D0BCF1F2
:10122000000FDCBF40F0080040F008014FF0000064
:101230000FBCBDE810400BF1010BBBF1010F08BF63
:101240005FEA170722BF12F1010211F101014FF00D
:10125000004143F1000300F0004043EA0000704702
:10126000F9D35708D0E746EA064613F1400F4FEA94
:1012700016461FDD13F1200FDFBF16430A4600217B
:1012800020335B42BED0C3F1200746EA064602FA8D
:1012900007F74FEA164646EA0706C3F1200722FA87
:1012A00003F201FA07F721FA03F14FF0000342EAD3
:1012B0000702A7E746EA020646EA06464FEA16464E
:1012C00046EA0106BCBF46EA0646360C4FF000036C
:1012D0004FF000024FF0000194E72DE9804C9A4650
:1012E000934670B491E8380007C831EA400C48BF13
:1012F00034EA430C03D5FFF7E6FDFFF780FFF0BCAF
:10130000BDE8008C2DE9804C9A46934670B491E874
:10131000380007C810F0804F08BF13F0804F03D18A
:1013200000F005F8FFF76BFFF0BCBDE8008C20F083
:101330007F4780EA030023F07F4C07EB0C03A3F503
:101340007C5300F00040A3F1FE0392F0000F00F088
:10135000B38095F0000F00F077802DE901494FEA46
:1013600011404FEA144621EA004800FB06FC24EA3B
:10137000064708FB06F607FB08F800FB07F718EB23
:1013800006484CEB164C4FEA124B18EB07484FEA55
:1013900015464CEB174022EA0B4E0BFB06FC25EAE8
:1013A00006470EFB06F607FB0EFE0BFB07F71EEBD0
:1013B000064E4CEB164C4FF000061EEB074E4CEB66
:1013C000174B18EB0B0840F1000018EB0E0B58EB15
:1013D000000840F100008F1A4FF000013CBFC943E4
:1013E000661B14BFB5EB040C00213CBFC943F61BC0
:1013F0004FEA17444EEA8E0E27EA04454FEA1C478F
:1014000004FB07622CEA074C05FB07F70CFB05F60B
:1014100004FB0CFC16EB074642EB174216EB0C469E
:1014200042EB1C421BEB060658EB0202414146EA26
:101430009E0601D5BDE80189B619524141EB010173
:10144000A3F10103BDE801894FEA14454FEA1147B2
:1014500024EA054621EA074C05FB07F406FB07F7DB
:101460000CFB06F105FB0CFC11EB074144EB1744A8
:101470004FEA124711EB0C4144EB1C4422EA074CA3
:1014800005FB07F206FB07F70CFB06F605FB0CFC59
:1014900016EB074642EB174216EB0C4642EB1C4597
:1014A0006A1854F1000148BF7047B619524141EB28
:1014B0000101A3F10103704795F0000F37D04FEA07
:1014C00011424FEA144721EA024624EA074C02FB84
:1014D00007F106FB07F70CFB06F402FB0CFC14EB10
:1014E000074441EB17414FEA154714EB0C4441EB1D
:1014F0001C4125EA074C02FB07F506FB07F70CFB2E
:1015000006F602FB0CFC16EB074645EB174516EBFF
:101510000C4645EB1C42121951F1000148BF7047BF
:10152000B619524141EB0101A3F1010370474FEAA3
:1015300014454FEA114724EA054621EA074C05FB0A
:1015400007F106FB07F70CFB06F24FF0000605FB60
:101550000CFC12EB074241EB174112EB0C4251EB32
:101560001C4148BF7047921841EB0101A3F10103F0
:101570007047000001220249024801F08BBB0000C5
:101580001000002040020020FEE77047042000F019
:10159000D9B8202000F0D6B810B53C21044801F09D
:1015A00069F8BDE810403C21024801F063B8000032
:1015B00068010020F801002072B6FEE70168486A61
:1015C000002200B24A62704710B590F82110002244
:1015D000022905D00421816380F82020012010BD5C
:1015E00001680B6823F00E030B6001680B6823F0A1
:1015F00001030B6090F84030C46B012101FA03F342
:10160000636080F8211080F82020104610BD000093
:1016100010B590F821100024022903D00421816321
:1016200001243DE001680A6822F00E020A600168A8
:101630000A6822F001020A601A4A0168914201D147
:10164000012121E0174A1432914201D110211BE0FF
:10165000144A2832914201D1891515E0114A3C32D1
:10166000914201D189140FE00E4A5032914202D1C9
:101670004FF4803108E00B4A6432914202D14FF4BA
:10168000801101E04FF08071064A083A5160012153
:1016900080F82110002180F82010416B01B18847AB
:1016A000204610BD0800024070B5044600F050F915
:1016B0000546601C02D004480078044400F048F954
:1016C000401BA042FAD370BD0000002070B5042872
:1016D00005D0202822D1BDE8704002F0A7BA144DF1
:1016E0000421284600F02AF9124C012817D00421C1
:1016F000284600F023F9002810D1204600F0A0FE73
:101700002068406A06F0C8F805F01CFF0A4A0B4B37
:1017100005F03EFC05F0BAF90949086070BD216882
:1017200000204862BDE87040024800F061BE000041
:1017300000080140B00100209CC420B07268913FB5
:1017400020000020044910B50A68024202D0086057
:10175000FFF7BCFF10BD0000140401402DE9F84F55
:10176000DFF8B8910024A9F1040B23460F2709F1F3
:10177000040AABF1040EC9E00125A5402A40AA42A3
:101780007DD1674ED1F804C0ACEB0608B44532D029
:1017900014DCBCF1030F3AD009DCBCF1000F2AD0F5
:1017A000BCF1010F1CD0BCF1020F31D11DE0BCF126
:1017B000110F17D0BCF1120F2AD119E0B8F5881F0C
:1017C00019D006DCB8F5803F15D0B8F5801F1FD1C1
:1017D00011E0B8F5001F0ED0B8F5041F18D10AE0CB
:1017E000CB6815E0CB681B1D12E0CB6808330FE017
:1017F000CB680C330CE08B682BB1012B4FF0080346
:1018000003D0456104E0042302E0056100E0002309
:10181000FF2A01D8064601E000F104064FEA8405DC
:1018200001D9A5F12005D6F8008007FA05FC28EAC1
:101830000C0803FA05F548EA0508C6F800804D686B
:10184000ED0062D5374DAE6946F00106AE61AD6977
:1018500024F0030605F001050095334D06EB050C59
:10186000DCF80850A607360F07FA06F825EA08053F
:10187000DFF8B880404503D14FF0000817E044E09E
:10188000DFF8AC80404502D14FF001080FE0DFF8EF
:10189000A480404502D14FF0020808E0DFF89880AC
:1018A000404502D14FF0030801E04FF0040808FA68
:1018B00006F848EA0508CCF808804D68D9F80060B9
:1018C000ED024D4601D5164300E096432E604D686B
:1018D000DAF80060AD02554601D5164300E09643A4
:1018E0002E604D68DBF80060AD035D4601D5164300
:1018F00000E096432E604D68DEF80060ED0375460B
:1019000001D5164300E096432E60641C0D682A46FC
:10191000E5407FF431AFBDE8F88F000008040140D6
:1019200000001110001002400000014000080140BA
:10193000000C014000100140001401408068084084
:1019400000D0012070470AB1016170470904FBE72C
:1019500001488068704700000000002070B5040056
:1019600025D094F83D00002520B984F83C5020464D
:1019700000F04EF9242084F83D002068016821F031
:10198000010101602068016841F4004101602068A4
:10199000016821F40041016000F0A0FA4D4A61683D
:1019A000914201D84C4900E04C49884201D20120C3
:1019B00070BD4B492368B0FBF1F15E6826F03F062D
:1019C0000E435E606368934206D94FF496735943A1
:1019D0004FF47A73B1FBF3F12368491C1E6A26F0B9
:1019E0003F06314319626168914210D84900401E98
:1019F000B0FBF1F2521CC2F30B02042A01D2042004
:101A000022E0B0FBF1F0401CC0F30B001CE0A26828
:101A1000F2B301EBC10303EB0116431EB3FBF6F374
:101A20005B1C43F480431B0549D092B301EBC10218
:101A300002EB0111401EB0FBF1F0401CC0F30B00A3
:101A400040F4804040F400402168CA694CF6FF73BE
:101A50009A431043C861D4E9071001432068026823
:101A600022F0C00211430160D4E903010143206860
:101A7000826848F2FF339A4311438160D4E905013B
:101A800008432168CA6822F0FF021043C86001E0E1
:101A90000EE016E02068016841F001010160256454
:101AA000202084F83D00256384F83E50002070BD5E
:101AB00001EB4106431EB3FBF6F35B1CB3E70120C9
:101AC000C2E701EB4101401EB0FBF1F0401CC0F346
:101AD0000B00B7E7A086010080841E0000093D00CE
:101AE00040420F002DE9F84F1F4690468A460446B3
:101AF000DDF82890FFF72CFF054694F83D002028DC
:101B00007FD11923012240492046009501F0DEF9DA
:101B1000002876D194F83C00012872D0012084F886
:101B20003C0020680168C90703D1016841F0010148
:101B300001602068016821F400610160212084F8BF
:101B40003D00102084F83E0000262664C4F824805E
:101B50006785608D20852D48E0622B464A465146B8
:101B6000204601F039F990B92068416980690090F8
:101B700036E02A464946204601F04EFA50B1206C24
:101B8000042804D12068016841F40071016001203B
:101B9000BDE8F88F606A216800780861606A401CBF
:101BA0006062618D491E6185218D491E89B2218542
:101BB00022685369DB435B070BD451B10078106195
:101BC000606A401C6062608D401E6085208D401EF2
:101BD00020852A464946204601F04CF90028CED1FE
:101BE000208D0028C5D154F83D0B016841F40071E7
:101BF0000160202004F81E09E67766770020C7E719
:101C0000FFE70220C4E70000020010000000FFFF11
:101C100010B586B0002100910191029103910068F6
:101C20001349884222D1134CA06940F00800A061FA
:101C3000A069694600F0080004904FF440700090DD
:101C400012200190032003900B48FFF787FD0B48FB
:101C5000416841F0E06141F002014160E06940F417
:101C60000010E061E06900F40010049006B010BDBF
:101C70000054004000100240000C014000000140F0
:101C8000024881680278114481607047000000209A
:101C9000074810B5016841F010010160032000F011
:101CA00075F80F2000F006F800F024F8002010BDB1
:101CB0000020024070B50D4D04464FF47A7128782B
:101CC000B1FBF0F00A490968B1FBF0F000F0DCFA72
:101CD00048B9102C07D200222146501E00F036F8D9
:101CE00000206C6070BD012070BD0000000000206D
:101CF0000C0000200C4808B5816941F001018161A8
:101D0000816901F001010091C16941F08051C16117
:101D1000C06900F0805000900448416821F0E06103
:101D200041F00071416008BD001002400000014018
:101D3000002809DB00F01F020121914040098000CA
:101D400000F1E020C0F8001170470000F0B40E4B25
:101D50001B680C46C3F30223C3F10705042D00D909
:101D60000425191D072901D2002300E0DB1E0126EE
:101D700006FA05F1491E214099409E40761E164004
:101D80003143F0BC02F0D4BA0CED00E0064900F09B
:101D9000070208684FF6FF03184040EA0220034A92
:101DA00010430860704700000CED00E00000FA05E9
:101DB0002DE9F0470F46050061D0434E306800F032
:101DC0000700B84209D2306820F00700384330607D
:101DD000306800F00700B84251D128683B4C8107B9
:101DE00012D5400703D5606840F4E0606060287851
:101DF000000703D5606840F4605060606068A968BF
:101E000020F0F000084360602878C00728D0686898
:101E1000012810D02168022810D0890700292EDA65
:101E2000616821F0030101436160FFF791FD804685
:101E300041F288390DE021688903EFE78901EDE778
:101E4000FFF786FDA0EB0801494502D90320BDE854
:101E5000F0876068696800F00C00B0EB810FEFD18B
:101E6000306800F00700B8420BD9306820F0070056
:101E700038433060306800F00700B84201D00120DC
:101E8000E5E72878400705D56068E96820F4E06058
:101E9000084360602878000706D56068296920F447
:101EA000605040EAC100606000F038F86168084A9C
:101EB000C1F30311515CC840064908600648006838
:101EC000FFF7F8FE0020C2E70020024000100240A9
:101ED000947C00080C000020040000200448054900
:101EE00000684968044AC1F30221515CC840704748
:101EF0000C00002000100240A47C000804480549A2
:101F000000684968044AC1F3C221515CC840704767
:101F10000C00002000100240A47C00080E4A51680A
:101F20000E4801F00C03042B11D0082B0FD10C48E4
:101F3000C1F38343C903C05C0AD55168084AC1F3A1
:101F40004041921E515C054A5043B0FBF1F070478E
:101F500004494843704700000010024000127A0014
:101F6000847C000800093D002DE9F84F040070D082
:101F70002078C04DC00749D06868C0F381000128AF
:101F800007D06868C0F38100022809D16868C003DF
:101F900006D52868800339D560680028E7D035E089
:101FA0006068B0F5803F0BD010B1B0F5A02F11D014
:101FB000286820F480302860286820F4802002E01F
:101FC000286840F480302860606890B1FFF7C0FC5A
:101FD00006460AE0286840F480202860F0E700BF49
:101FE000FFF7B6FC801B642873D828688003F7D5F8
:101FF0000CE0FFF7ADFC064605E000BFFFF7A8FCCC
:10200000801B6428F0D828688003F7D420789A4E83
:1020100080074FF001094FF0000839D5686810F0CB
:102020000C0F07D06868C0F38100022809D16868E6
:10203000C00306D42868800714D52069012808D178
:1020400010E02069B0B1C6F80090FFF781FC0746A8
:1020500005E00AE1FFF77CFCC01B0228C4D8286811
:102060008007F7D52868616920F0F80040EAC100D0
:1020700028600DE0C6F80080FFF76AFC074604E020
:10208000FFF766FCC01B022823D828688007F7D416
:10209000207800072CD57948A169D9B1C0F8009003
:1020A000FFF756FC074604E0FFF752FCC01B02286E
:1020B0000FD8686A8007F7D571484FF4FA51006865
:1020C000B0FBF1F0009000BF0098411E0091FAD2E1
:1020D0000EE080E0C0F80080FFF73AFC074604E01D
:1020E000FFF736FCC01B022875D8686A8007F7D452
:1020F0002078400760D5E8690027C00008D4E86967
:1021000040F08050E861E869012700F080500090BD
:102110005C480168C90513D40168834641F48071A5
:102120000160FFF715FC824606E000BFFFF710FCD8
:10213000A0EB0A0064284ED8DBF80000C005F5D5F6
:10214000E06801280AD008B1052813D0286A20F0D9
:1021500001002862286A20F0040002E0286A40F0AA
:1021600001002862E06841F2883B98B1FFF7F0FB7C
:1021700082460BE0286A40F004002862EEE700BFC8
:10218000FFF7E6FBA0EB0A0159455AD8286A8007F9
:10219000F6D50CE0FFF7DCFB824605E0FFF7D8FB45
:1021A000A0EB0A0159454CD8286A8007F6D41FB124
:1021B000E86920F08050E861E06988B36968C1F39C
:1021C0008101022944D00228C6F8608004D0FFF7BC
:1021D000BFFB044638E034E0FFF7BAFB074604E0F3
:1021E000FFF7B6FBC01B02282BD828688001F7D464
:1021F000206AB0F5803F05D16868A16820F40030FE
:1022000008436860D4E908010843696821F474113F
:1022100008436860C6F86090FFF79AFB044606E042
:1022200025E000BFFFF794FB001B022809D82868AF
:102230008001F7D51BE000BFFFF78AFB001B0228D7
:1022400002D90320BDE8F88F28688001F4D40EE09D
:102250000128F7D06868226A00F48031914204D1E5
:10226000616A00F47010884201D00120EAE7002082
:10227000E8E70000001002400000424280044242B1
:102280000C0000200070004010B5401EB0F1807FAF
:1022900001D3012010BD4FF0E02460610F216017D1
:1022A00002F046F80020A06107202061002010BD48
:1022B00010B590F83C20012A22D0012280F83C2061
:1022C000CA688C6822F4407222434C6822F480620F
:1022D00022430C6822F4006222430C6922F48052EB
:1022E00022434C6922F400522243C969002322F49C
:1022F00080420A4301684A6480F83C30002010BDE7
:10230000022010BD70B590F83C20012A26D001248F
:1023100080F83C40022280F83D2003685A689D689E
:1023200022F070060A6832435A600D4B02689A42E6
:1023300008D0B2F1804F05D00A4B9A4202D00A4B26
:102340009A4204D1496825F080031943916080F8CE
:102350003D40002180F83C10084670BD022070BD51
:10236000002C0140000400400008004010B50400AB
:1023700003D094F83D0010B107E0012010BD00200B
:1023800084F83C00204600F01FF8022084F83D004D
:10239000211D206801F0DEFC012084F8460084F84D
:1023A0003E0084F83F0084F8400084F8410084F83F
:1023B000420084F8430084F8440084F8450084F81F
:1023C0003D00002010BD000008B5006806498842A5
:1023D00008D10648C16941F00201C161C06900F03D
:1023E0000200009008BD0000000400400010024000
:1023F00090F83D10012901D001207047022180F89A
:102400003D1000680B49884208D0B0F1804F05D0DC
:102410000949884202D00949884204D1816801F003
:102420000701062903D0016841F001010160002085
:1024300070470000002C01400004004000080040EC
:1024400001680A6A41F211131A4207D10A6A9B1005
:102450001A4203D10A6822F001020A60012180F8C1
:102460003D100020704770B5044690F83C000025F0
:10247000012817D0012684F83C60022084F83D0032
:102480002068826822F0770222F47F428260086826
:10249000502838D00DDC20284FD005DC90B3102810
:1024A00011D14AE0022070BD302846D040280AD120
:1024B0003BE060282FD070280DD0B0F5805F03D0AE
:1024C000B0F5005F12D0012584F83D60002084F84B
:1024D0003C00284670BDCB68D1E90121206801F09D
:1024E0007CFC2068816841F0770109E0CB68D1E984
:1024F0000121206801F071FC2068816841F480416D
:102500008160E1E719E0CA684968206801F01AFDB6
:102510005021206806E0CA684968206801F023FD60
:102520006021206801F063FCCEE7CA684968206832
:1025300001F008FD40212068F4E7226801461046BA
:10254000F0E72DE9F0410D46040003D094F83D007A
:1025500018B108E00120BDE8F081002084F83C00BB
:10256000204600F041F8022084F83D002068816890
:1025700044F2070291438160211D206801F0EAFBCB
:10258000226890689169166A2B68AF69034340F22C
:102590000330814341EA0721A868EF6908434FF6F9
:1025A000FC418843E96840EA0720014328692F6A13
:1025B000000140EA0730084369686D6926F0220689
:1025C00046EA0515294393602268906154F8460B4A
:1025D0000162012004F81F09E0752076E07620777B
:1025E000A0750020B7E7000000B585B0002100917C
:1025F00001910291039101681A48B1F1804F1BD0FB
:10260000194A914216D1C16941F00401C161C16901
:1026100001F004010491816941F008018161806940
:10262000694600F008000490C02000900F4800BFE9
:10263000FFF794F805B000BDC16941F00101C16127
:10264000C16901F001010491816941F004018161D6
:102650008069694600F0040004900320009004485B
:10266000E6E700000010024000080040000C0140B6
:102670000008014070B590F83E60044690F83F5065
:1026800090F8423090F84320022021B104290ED066
:10269000012E1BD114E0012E18D1012B16D184F884
:1026A0003E0084F8420001220021206820E0012D34
:1026B0000CD1012A0AD184F83F0084F8430014E0C9
:1026C000012D03D1012B01D1012A01D0012070BDC0
:1026D00084F83E0084F83F0084F8420084F8430008
:1026E00001220021206801F06BFB012204212068F7
:1026F00001F066FB2068016841F0010101600020E3
:1027000070BD000000B585B00021009101910291DB
:10271000039100680C49884213D10C48816941F04B
:10272000040181618069694600F0040004904FF45F
:102730001060009002200190032003900448FFF7EE
:102740000DF805B000BD0000002C01400010024053
:102750000008014070B5044690F83C0000260D4684
:1027600001280FD0012084F83C006AB1042A1DD052
:10277000082A2FD00C2A3FD00126002084F83C00E4
:10278000304670BD022070BD206801F039FB206822
:10279000816941F0080181612068816921F00401AB
:1027A0008161206881692A69114311E0206801F084
:1027B0004FFB2068816941F4006181612068816973
:1027C00021F480618161206881692A6941EA0221DE
:1027D0008161D2E7206801F067FB2068C16941F0A0
:1027E0000801C1612068C16921F00401C16120684C
:1027F000C1692A69114311E0206801F081FB20685A
:10280000C16941F40061C1612068C16921F480613E
:10281000C1612068C1692A6941EA0221C161ACE74E
:1028200010B5040003D094F83D0010B107E001207A
:1028300010BD002084F83C00204600F01FF8022064
:1028400084F83D00211D206801F084FA012084F8FD
:10285000460084F83E0084F83F0084F8400084F885
:10286000410084F8420084F8430084F8440084F86E
:10287000450084F83D00002010BD000008B5006848
:102880000649884208D10648816941F400618161A6
:10289000806900F40060009008BD0000002C014039
:1028A0000010024010B50446022249B104290ED09E
:1028B000082913D094F84100012816D0012010BD3A
:1028C00094F83E000128F9D184F83E200FE094F8F6
:1028D0003F000128F2D184F83F2008E094F840003E
:1028E0000128EBD184F8402001E084F84120012246
:1028F000206801F065FA0F492068884203D1426CD4
:1029000042F4004242642068884208D0B0F1804F0F
:1029100005D00949884202D00849884204D181681B
:1029200001F00701062903D0016841F001010160AF
:10293000002010BD002C01400004004000080040B1
:1029400070477047F8B5016804460868CA684B6963
:1029500010F00F0F4FF0000559D003F0010602F4FC
:102960009077374365D0C10705D0D10503D5616C99
:1029700041F001016164410705D5D90703D0616CBD
:1029800041F002016164810705D5D90703D0616C6C
:1029900041F004016164010707D502F020013143D1
:1029A00003D0616C41F008016164616C00293AD088
:1029B000800604D5900602D5204601F02AFB206847
:1029C0004069616CC0F38010090700D460B32046F1
:1029D00001F0F8FA20684069400621D520681430DB
:1029E00050E8001F21F0400140E80012002AF5D114
:1029F000E06BA8B16D494163E06BFEF709FE00286A
:102A000011D0E06B416B01B0BDE8F0400847830690
:102A10000FD593060DD52046BDE8F84001F0F9BA70
:102A20002046FFF78EFFF8BD2046FFF78AFF65645A
:102A3000F8BD266B2023012E7CD1C6067AD5D6069A
:102A400078D508684868009048694FF0020640064B
:102A500040D5E16B086840680004000CE8D0A28D06
:102A60008242E5D9E085886920282DD020680C3085
:102A700050E8001F21F4807140E80012002AF5D1CF
:102A80002068143050E8001F21F0010140E80012D6
:102A9000002AF5D12068143050E8001F21F04001D1
:102AA00040E80012002AF5D184F8423025632068FE
:102AB0000C3050E8001F21F0100140E80012002AFD
:102AC000F5D1E06BFEF780FD6663A08DE18D401AC5
:102AD00081B22AE0A08DE18D401A81B2E08D0028FC
:102AE000A6D00029A4D022680C3252E8000F20F4AE
:102AF000907042E80007002FF5D12068143050E8AC
:102B0000002F22F0010240E80027002FF5D184F8C1
:102B10004230256320680C3050E8002F22F010026C
:102B200040E80023002BF5D166632046FFF708FF3D
:102B3000F8BDFFE705062BD5150629D594F8410009
:102B40002128F5D1A068B0F5805F01D12069B0B12E
:102B5000206A411C2162216800784860E08C401E98
:102B60000004000CE084E3D12068C16821F08001FA
:102B7000C1602068C16841F04001C160D8E7206AA7
:102B80000088C0F308004860206A801C2062E5E7E6
:102B90004006CDD55006CBD5CA68204622F040026B
:102BA000CA6084F8413000F0EAF8C1E7B53F000898
:102BB00070B5040004D094F84100002510B106E07F
:102BC000012070BD84F84050204600F023F82420F6
:102BD00084F841002068C16821F40051C16020469A
:102BE00001F078FA2068016921F4904101612068C0
:102BF000416921F02A0141612068C16841F4005116
:102C0000C1606564202084F8410084F84200656357
:102C1000002070BD30B585B000240094019402946A
:102C200003940068184988422CD11848C16941F4BE
:102C30008021C161C16901F480210491816941F061
:102C4000080181618069124D00F0080004904FF482
:102C5000806000900220019003200390694628467E
:102C6000FEF77CFDE814CDE900046946284602948D
:102C7000FEF774FD002202212720FFF767F82720C6
:102C8000FFF756F805B030BD004800400010024084
:102C9000000C014090F84230202B01D002207047F8
:102CA00021B11AB10023036301F070BA012070470B
:102CB00010B50068084988420DD14FF6FF73012214
:102CC0000649074800F00EF8BDE81040012203490C
:102CD0000348FFF7DFBF10BD004800401000002090
:102CE000400200202DE9F843044690F841001F46B9
:102CF00016460D46202802D00220BDE8F8837DB19B
:102D000076B100206064212084F84100FEF720FEA7
:102D1000A6848046E684A068B0F5805F02D003E018
:102D20000120EAE7206910B12E4600250EE00026BA
:102D30000CE08021204601F044FAA0B9AEB116F8AB
:102D4000010B21684860E08C401EE084E08C434623
:102D50004FF0000200970028EBD14FF040012046D1
:102D600001F02FFA30B10320C7E735F8020BC0F3AA
:102D70000800E6E7202084F841000020BDE7704706
:102D800010B5084C012208212046FEF7DCFD0C207E
:102D900001F0A4FE20460022BDE810400821FEF705
:102DA000D2BD000000080140FEE701684A69D24335
:102DB00052050FD46FF480624A61002140F8301F41
:102DC000202242738173026942F00402026101739E
:102DD0000120704700207047F8B50446C06A1E46BF
:102DE0000D461746082807D0012805D010F5803F6A
:102DF00002D0206B122804D12068016841F4807150
:102E00000160134600224FF001112046009600F0A9
:102E10005DF840B120680068C00502D54FF400702D
:102E200020640320F8BD2069B0F5804F0ED0062045
:102E3000216800EAD51040F0F000086133463A46B8
:102E40000B49204600F08AF878B902E005F0FE0050
:102E500000E0E8B221680861054933463A46891F17
:102E6000204600F07BF80028DCD00120F8BD0000EF
:102E70000800010070B516460D4604461EE02046C7
:102E8000FFF793FF08B1012070BD681C16D0FEF754
:102E90005FFD801BA84200D885B920684069C04307
:102EA00040070BD5002044F8300F20216173A07338
:102EB000216941F0200121612073E4E72068406925
:102EC000C0434007DBD4002070BD00002DE9F0476F
:102ED000984617460D460446C1F30746DDF8209094
:102EE0002AE000BFB8F1FF3F26D0FEF731FDA0EB8E
:102EF0000901414502D8B8F1000F1DD12068012E0B
:102F000016D0806925EA00000004000C12D00020D1
:102F1000B84211D1002044F8300F20216173A07312
:102F2000216941F02001216120730120BDE8F08773
:102F30004069E7E70120EBE72068012E0AD08069AD
:102F400025EA00000004000C06D00020B842C9D0D9
:102F50000020EBE74069F3E70120F7E72DE9F047B0
:102F6000984616460D4604464FF000094FF0200AD9
:102F7000C1F3074723E020684069C043400515D4EA
:102F80002068016841F40071016021686FF480607D
:102F90004861C4F8309084F83DA084F83E90216CDC
:102FA00041F00401216484F83C9021E0701C06D0BB
:102FB000FEF7CEFCA0EB0800B04203D816B1012FFB
:102FC0001FD021E02068012F15D0806925EA00007C
:102FD0000004000C18D000BF44F8309F84F80DA006
:102FE00084F80E90216941F02001216184F80C9051
:102FF0000120BDE8F087406925EA00000004000CCC
:10300000EAD12068406901E02068806925EA000073
:103010000004000CAFD1ECE770B516460D4604462F
:103020001EE02046FFF7C1FE08B1012070BD681CFC
:1030300016D0FEF78DFC801BA84200D885B9206809
:103040004069C04300060BD5002044F8300F202112
:103050006173A073216941F0200121612073E4E7CD
:1030600020684069C0430006DBD4002070BD00002A
:1030700010B50E4C002208212046FEF764FC00F03B
:1030800017F8012210212046FEF75DFC00F010F831
:10309000002210212046FEF756FC00F009F82046D9
:1030A0000122BDE810400821FEF74DBC000C014094
:1030B0000020401CC0B20A28FBD370470C4800B562
:1030C000816985B041F0080181618069694600F03D
:1030D0000800049018200090032003901120019014
:1030E0000448FEF73BFB00F09DF805B000BD000072
:1030F00000100240000C014010B50C4C01220821C8
:103100002046FEF720FCFFF7D3FF012210212046C6
:10311000FEF719FCFFF7CCFF002210212046FEF736
:1031200012FCBDE81040FFF7C3BF0000000C0140D7
:103130002DE9F0410024134E074625466006040E93
:10314000012210213046FEF7FEFBFFF7B1FF0821F8
:103150003046FEF7F3FB08B1641CE4B200221021F4
:103160003046FEF7F0FBFFF7A3FF6D1CEDB2082D14
:10317000E4D327B1FFF77CFF2046BDE8F081FFF7DD
:10318000BBFFF9E7000C014070B5154E0546002461
:10319000280601D5012200E0002208213046FEF772
:1031A000D2FBFFF785FF012210213046FEF7CBFB53
:1031B000FFF77EFF002210213046FEF7C4FB072CEC
:1031C00004D1012208213046FEF7BDFB6806050E3A
:1031D000FFF76EFF641CE4B2082CD9D370BD000069
:1031E000000C014010B50E4C012208212046FEF7CC
:1031F000AAFB012210212046FEF7A5FBFFF758FF8E
:10320000002208212046FEF79EFBFFF751FF002217
:1032100010212046FEF797FBBDE81040FFF748BF9E
:10322000000C014010B50A4C002208212046FEF790
:103230008AFB012210212046FEF785FBFFF738FFAD
:1032400020460122BDE810400821FEF77CBB0000AB
:10325000000C014070B5104D012208212846FEF7F0
:1032600072FBFFF725FF012210212846FEF76BFBBA
:10327000FFF71EFF08212846FEF760FB08B1012476
:1032800000E00024002210212846FEF75CFBFFF737
:103290000FFF204670BD0000000C01407CB51446B5
:1032A0000D4606466B4606223B21682000F080F85A
:1032B00000280BD1BDF8001049BA3180BDF80210CA
:1032C00049BA2980BDF8041049BA21807CBD7CB57B
:1032D00014460D4606466B4606224321682000F040
:1032E00067F800280BD1BDF8001049BA3180BDF84D
:1032F000021049BA2980BDF8041049BA21807CBD6A
:1033000010B5FFF7DBFE80216B2000F0C0F86420D1
:10331000FEF7CAF900216B2000F0B9F8032000F095
:1033200082F8002000F07AF8642000F099F800217B
:10333000382000F0ACF800216A2000F0A8F8002145
:10334000232000F0A4F88021372000F0A0F8752099
:1033500000F011F8682801D0012010BD01216B2078
:1033600000F095F800216C2000F091F8642000F046
:1033700077F8002010BD10B50446FFF733FFD020CA
:10338000FFF702FFFFF766FF2046FFF7FDFEFFF79E
:1033900061FFFFF727FFD120FFF7F6FEFFF75AFF87
:1033A0000020FFF7C5FE0446FFF73CFF204610BD96
:1033B0002DE9F0411D4614460F460646FFF712FF61
:1033C0007006000EFFF7E0FEFFF744FF20B1FFF7A5
:1033D00029FF0120BDE8F0813846FFF7D5FEFFF751
:1033E00039FFFFF7FFFE012000EB4600C0B2FFF7F8
:1033F000CBFEFFF72FFF09E0012C0DD05FF001009D
:10340000FFF796FE641E05F8010BE4B2002CF3D121
:10341000FFF708FF0020DDE70020F1E7C006010EFE
:103420001C2000F034B8C006010E1B2000F02FB89D
:10343000BC2801D3012110E0622801D302210CE055
:103440002A2801D3032108E0142801D3042104E031
:103450000A2801D3052100E006211A2000F017B840
:1034600010B504464FF47A70844201D9044602E054
:10347000042C00D20424B0FBF4F0401EC1B2192089
:1034800000F005F86008BDE81040FFF7D1BF70B547
:103490000C460546FFF7A6FED020FFF775FEFFF7A6
:1034A000D9FE50B92846FFF76FFEFFF7D3FE20463E
:1034B000FFF76AFEFFF7CEFE18B1FFF7B3FE01205B
:1034C00070BDFFF7AFFE002070BD2DE9F0411E4634
:1034D00015460F460446FFF785FE6006000EFFF70F
:1034E00053FEFFF7B7FE60B93846FFF74DFEFFF712
:1034F000B1FE00240CE0305DFFF746FEFFF7AAFEA8
:1035000020B1FFF78FFE0120BDE8F081641CE4B21A
:10351000AC42F0D3FFF786FE0020F5E72DE9F0413D
:1035200086B0002437480094019402940394816982
:1035300041F010018161816901F0100104918169FC
:1035400041F020018161816901F0200104918169CC
:1035500041F004018161816901F0040104918169F4
:1035600041F0080181618069274F00F00800049054
:10357000002208213846FEF7E6F9DFF890800022A5
:103580004FF218014046FEF7DEF904200090204873
:10359000CDE9010469463846FEF7E0F80820012528
:1035A0000326CDE90005CDE9024669463846FEF717
:1035B000D5F84FF47040CDE90005CDE902466946E3
:1035C0004046FEF7CBF81820009001AA112082E8AF
:1035D000610069464046FEF7C1F8202000900D4882
:1035E000CDE9010569464046FEF7B8F80022012101
:1035F0000820FEF7ABFB0820FEF79AFB06B0BDE8FB
:10360000F08100000010024000080140000C014061
:1036100000003110000021100D4810B50B49016069
:103620000C49416000214FF480428160C0E90312DF
:1036300041618161C1610162FEF790F9002803D008
:10364000BDE81040FDF7B8BF10BD000000540040B9
:10365000CC000020A086010010B592B000240F9489
:103660001C2168461094FCF7EEFE202107A8FCF709
:10367000EAFE25482349C0E9001441F61F41C0E98C
:103680000241046144618461FFF7CAF808B1FDF7A3
:1036900093FF0F940FA91C481094FEF733FE08B156
:1036A000FDF78AFF602000904FF4E150CDE901045E
:1036B0000394049405940022694613480694FFF786
:1036C00049F808B1FDF778FF0C2269460E48FFF76C
:1036D00041F808B1FDF770FF0794089409944FF47E
:1036E00000500A94CDE90B4007A907480E94FEF755
:1036F000DFFD08B1FDF760FF0348FFF703F812B0E4
:1037000010BD0000002C01402001002010B58CB03D
:1037100024216846FCF797FE0024154809944FF0D1
:1037200080410A94C0E900144FF6FF71C0E90241DC
:10373000046184610320CDE900040120CDE9020485
:103740000494CDE905400794694609480894FEF7BA
:10375000F8FE08B1FDF730FF099409A904480A945E
:10376000FEF7D0FD002801D0FDF726FF0CB010BDFC
:103770006801002010B586B0002417480094019419
:103780000294039404941349059401604721C0E90D
:1037900001144FF6FF71C0E903148461FEF7E6FDE2
:1037A00008B1FDF709FF4FF48050009069460A48C0
:1037B000FEF759FE08B1FDF7FFFE049404A9064880
:1037C0000594FEF79FFD002801D0FDF7F5FE06B039
:1037D00010BD000000040040B001002010B58CB006
:1037E00024216846FCF72FFE00241648099414494A
:1037F0000A94C0E900144FF6FF71C0E90241046168
:1038000084610320CDE900040120CDE90204049481
:10381000CDE90540079469460A480894FEF791FEF1
:1038200008B1FDF7C9FE099409A906480A94FEF7F4
:1038300069FD002801D0FDF7BFFE0CB010BD0000EF
:1038400000080040F80100200C4810B50A4901604A
:103850004FF416514160002181600C22C160C0E923
:1038600004128161C161FFF7A3F9002803D0BDE80C
:103870001040FDF7A1BE10BD0048004040020020EE
:10388000FEE700002DE9F0410D461B4E04004FF409
:1038900000514FF4805705D401223046FEF753F80B
:1038A000002204E000223046FEF74DF8012239469E
:1038B0003046FEF748F84FF480414F00002D05DBFD
:1038C00001223046FEF73FF8002204E00022304695
:1038D000FEF739F8012239463046FEF734F8002C5D
:1038E00000DA6442054801684C63002D00DA6D423D
:1038F00000680564BDE8F081000C01402001002053
:1039000010B500210448FEF7CDFFBDE810400C21A2
:103910000148FEF7C7BF00002001002010B54FF49A
:10392000E15304685A429C4201DD036002E0944284
:1039300000DA02600868984201DD0B6010BD904219
:10394000FCDA0A6010BDFEE770B5002400212046B5
:1039500000F061F80025002000F056F96D1CEDB272
:10396000802DF8D3641CE4B2082CEFD370BD10B5E1
:1039700000204FF47A720021491C9142FCD3401C74
:103980009042F8D3AE2000F02DF9D52000F02AF9AE
:10399000802000F027F9A82000F024F93F2000F053
:1039A00021F9D32000F01EF9002000F01BF940207F
:1039B00000F018F9A12000F015F9C82000F012F964
:1039C000DA2000F00FF9122000F00CF9812000F04D
:1039D00009F9CF2000F006F9D92000F003F9F12011
:1039E00000F000F9DB2000F0FDF8302000F0FAF8DC
:1039F000A42000F0F7F8A62000F0F4F88D2000F0E5
:103A0000F1F8142000F0EEF8AF2000F0EBF8BDE87C
:103A10001040FFF799BF10B50C4640F0B00000F021
:103A2000E1F8102040EA141000F0DCF804F00F0078
:103A3000BDE8104000F0D6B82DE9F0410446164626
:103A400040004FF0FF32801E02EB4408012B4CD0A7
:103A5000491E01EB4105621E6D0006EB4607022B75
:103A60006AD0032B7BD0042B3DD101EB41008700B2
:103A700002EB4200F9B2C0B2FFF7CDFF4A4906EBB4
:103A8000C600002501EB80067019A0F5805090F863
:103A9000800B00F0B9F86D1CEDB20C2DF4D304EBE3
:103AA0004405A81EF9B2C0B2FFF7B5FF00243019D3
:103AB000A0F5805090F88C0B00F0A6F8641CE4B2DE
:103AC0000C2CF4D36D1EF9B2E8B2FFF7A4FF00246A
:103AD0003019A0F5805090F8980B00F095F8641C10
:103AE000E4B20C2CF4D3BDE8F081CD00083DE9B27E
:103AF000C0B2FFF790FF2D48002400EB06163019E6
:103B0000A0F5805090F8000E00F07EF8641CE4B23E
:103B1000082CF4D3E9B208F0FF00FFF77CFF002483
:103B20003019A0F5805090F8080E00F06DF8641C74
:103B3000E4B2082CF4D3D6E7E9B2D0B2FFF76BFFBA
:103B40001B48002400EB4705281910F8C00C00F0B2
:103B50005BF8641CE4B2062CF6D3C4E7FFE7C0B2FE
:103B6000E9B2FFF758FF1348002400EB870630192D
:103B7000A0F5805090F8800E00F046F8641CE4B286
:103B8000062CF4D3E9B208F0FF00FFF744FF00244D
:103B90003019A0F5805090F8860E00F035F8641CBE
:103BA000E4B2062CF4D39EE77E950008F288000864
:103BB000E28E00080A9100082DE9F0411F461546E3
:103BC0000E468046002407E03019C1B23B4640460D
:103BD000FFF732FF641CE4B22A5D002AF4D1BDE88D
:103BE000F08100001CB500218DF804108DF805004F
:103BF000481E0090022301AA78210248FDF772FFB7
:103C00001CBD0000CC0000201CB540218DF8041024
:103C10008DF805004FF0FF300090022301AA7821B3
:103C20000148FDF75FFF1CBDCC00002070B52A489D
:103C3000FDF7C4FC294C20602948FDF7BFFC294D45
:103C4000294A4042111F2860081F01F099FF264AA7
:103C5000363A911E881EFFF73AFB234A303A911EEE
:103C6000881EFFF71BFB21681F4C2A683C3CE06C58
:103C700000F0ECFA06466064B4F9020003F0F4FDCB
:103C80000546304603F0F0FDA16A03F087FC2A46A2
:103C9000A16B00F021FB2064B4F9060003F0E4FD01
:103CA0000546206D03F0E0FD294600F06FF9A064A1
:103CB000216C0A1A0844C4E9152004F15801081FB0
:103CC000FFF72CFEB4F8580001B2B4F85400BDE878
:103CD000704000B2FFF7D6BD680100201800002038
:103CE000F80100201C000020980000207047704759
:103CF000FDF7C6BF30B58FB028216846FCF7A3FB9F
:103D000014210AA8FCF79FFB01210804CDE900104B
:103D10000024029402250491CDE907504FF4E010ED
:103D200009906846FEF720F908B172B6FEE70F2049
:103D3000CDE90A054FF48060CDE90C4002210AA8C4
:103D40000E94FEF735F8002801D072B6FEE70FB0EA
:103D500030BD7047F0B50268164B174C174D4FF049
:103D60008047984205D0B84203D0A04201D0A84273
:103D700003D122F070064A683243984205D0B84217
:103D800003D0A04201D0A84203D122F44074CA68F3
:103D900022434C6922F08002224302608A68C26298
:103DA0000A688262984201D1096901630121416177
:103DB000F0BD0000002C014000040040000800405D
:103DC00010B501F01F030121046A99408C4304627D
:103DD000016A9A401143016210BD10B5846842EA3D
:103DE000032224F47F440A432243826010BD826888
:103DF00022F070020A4342F0070181607047000020
:103E000030B5036A026A22F00102026242688469E4
:103E100024F073050C682C4323F002058B682B43B8
:103E20000A4DA8420BD123F00805CB6822F440725A
:103E30002B434D6923F0040315438A692A434260EA
:103E4000846149684163036230BD0000002C014079
:103E500030B5026A036A23F0100303624368846981
:103E60000D6824F4E64444EA05248D6822F020021B
:103E700042EA05120B4DA8420ED1CD6822F0800215
:103E800042EA05124D6923F4406343EA85038D69D4
:103E900022F0400243EA85034360846149688163FC
:103EA000026230BD002C014030B5036A026A22F480
:103EB000807202624268C46923F4007324F07305BF
:103EC0000C682C438D6843EA05230C4DA8420ED1A3
:103ED000CD6823F4006343EA05234D6922F4405280
:103EE00042EA05128D6923F4806342EA05124260BA
:103EF000C4614968C163036230BD0000002C014009
:103F000030B5046A026A22F4805202624268C369D0
:103F10000D6823F4E64343EA05238D6824F4005436
:103F200044EA0534064DA84204D14D6922F480428A
:103F300042EA85124260C36149680164046230BD8F
:103F4000002C014010B5036A046A24F001040462E5
:103F5000846924F0F00444EA021423F00A020A43BC
:103F60008461026210BD10B5036A046A24F0100473
:103F70000462846923F0A00324F4704444EA02320A
:103F800043EA01118261016210BD000070B5084D65
:103F90000646686A03F094FC04463046296A03F03A
:103FA0008FFC214603F0FAFABDE8704003F020BC14
:103FB0005C00002010B5406A0021C185C184FEF775
:103FC000C0FC10BD01680C3151E8002F22F4907242
:103FD00041E80023002BF5D10168143151E8002F8E
:103FE00022F0010241E80023002BF5D1016B0129E9
:103FF00009D101680C3151E8002F22F0100241E88C
:104000000023002BF5D1202180F84210002101630C
:10401000704708B590F84210222901D0022008BD4F
:1040200082684FF480539A4201D1016921B1816ABB
:104030009A421BD04AB10AE00268816A5268C2F310
:1040400008020A80816A891C08E0026972B102686C
:10405000526802F07F020A70816A491C8162C18D38
:10406000491E0904090CC18503D01BE0026852688F
:10407000F1E70168CA6822F02002CA600168CA68D4
:1040800022F48072CA6001684A6922F001024A6122
:10409000202180F8421000214163026B012A03D0E5
:1040A000FEF706FE002008BD016301680C3151E8EF
:1040B000002F22F0100241E80023002BF5D1016807
:1040C0000A68D20602D50A6849680091818DFEF718
:1040D00037FCE7E770B5044600680169E26821F43F
:1040E0004051114301612169A06808436169084397
:1040F0002168CA6841F20C639A430243CA6020688F
:104100004169A26921F44071114341611E4920684F
:10411000884202D1FDF7F2FE01E0FDF7DFFE00EB81
:10412000C00101EB0012606864218000B2FBF0F373
:10413000B3FBF1F36FF018067343B2FBF0F5B2FB7B
:10414000F0F605EB8305322303EB0515B5FBF1F51E
:10415000B6FBF1F605F0F00505EB0615B2FBF0F63F
:10416000B2FBF0F0B0FBF1F06FF01802504306EB39
:10417000800003EB0010B0FBF1F0216800F00F00AD
:104180002844886070BD000000380140816282854B
:10419000C28500214164222180F84210016921B1C9
:1041A0000168CA6842F48072CA6001684A6942F0D4
:1041B00001024A610068C16841F02001C16000202D
:1041C00070472DE9F041984617460E460446069D75
:1041D00027E0681C25D02DB1FDF7BAFBA0EB080045
:1041E000A8421ED920680C3050E8001F21F4D0717D
:1041F00040E80012002AF5D12068143050E8001F72
:1042000021F0010140E80012002AF5D1202084F8B5
:10421000410084F84200002084F840000320BDE8FB
:10422000F0812068006836EA000004D00020B8421F
:10423000CFD00020F3E70120F9E700000148FEF7A6
:1042400081BB000040020020FEE7000070B5204C5A
:104250001144C1EB40061D4DE06A03F005FB294601
:1042600003F02EFB0546304603F0FEFA194903F031
:1042700027FB294603F092F903F0BAFAE062216BBA
:104280000546084444F620612063884202DC494226
:10429000884200DA21632078012802D100202063BF
:1042A0002070206B03F0E0FAE16903F009FB064699
:1042B000284603F0D9FAA16903F002FB314603F066
:1042C0006DF9BDE8704003F093BA00003333333F1B
:1042D0005C0000209A99993E70B5144603F0BCFB2F
:1042E000084E05462146706903F0EAFA044629465D
:1042F000306903F0E5FA214603F050F9BDE870405B
:1043000003F076BA5C000020490050EAC12018BFD3
:1043100004204A0D18BF40F0010040F2FF72B2EBDA
:10432000515F08BF40F00200012808BF0520704718
:104330000907090E002804DB00F1E02080F80014D2
:10434000704700F00F0000F1E02080F8141D704766
:104350002DE9F0414F1E00EBC7010446D1E90001F1
:1043600015461E4637F006020DD02A46334602F0A7
:104370000FFE7F1E04EBC703D3E9002302F0B8FB56
:1043800037F00602F1D1022F25D0042F13D0062FCB
:1043900018BFBDE8F0812A46334602F0F9FDD4E9A2
:1043A0000A2302F0A5FB2A46334602F0F1FDD4E9C8
:1043B000082302F09DFB2A46334602F0E9FDD4E9CA
:1043C000062302F095FB2A46334602F0E1FDD4E9CC
:1043D000042302F08DFB2A46334602F0D9FDD4E9CE
:1043E000022302F085FB2A46334602F0D1FDD4E9D0
:1043F0000023BDE8F04102F07BBB012203F0D5BBF6
:1044000002F076BB002213461046114602F02CBC87
:10441000024A0020110703F0C8BB000001FDFFFFA6
:1044200030380A2801D20120704700207047000070
:104430002DE9FE4F07460E460025684601F020F89C
:1044400000246FF00F0AE8464FF0010957F82400E6
:1044500056F82410401A00D5404203F005FA5146A0
:1044600003F0D1FB58F8241011F0FF4F0BD003F0EC
:10447000FDF84FF07E5103F0EFFA0A4920F00040BA
:10448000884205DC07E0084908440849884202D30D
:1044900009FA04F00543641C032CD7DB2846BDE869
:1044A000FE8F0000295C0F3E666666C19A99D900AE
:1044B0002DE9F04D8D4F21F0004A86B005460C469F
:1044C000BA452ADBAAEB070028430AD08848824570
:1044D00001DC1AD1CDB106B02846BDE8F04DFFF79A
:1044E0008CBF844A844B284602F052FD07460E4694
:1044F000824A834B2846214602F04AFD06B03A46DE
:104500003346BDE8F04D02F0F3BA0120FCF741F864
:1045100006B0BDE8F04DFFF775BF7A48824542DA34
:10452000BAF1795F0BDA2846FFF7EEFE042808BFE0
:10453000FFF76EFF284606B02146BDE8F08D2A46FB
:104540000B46104602F024FD834602466E480E4696
:104550000B4606217844FFF7FBFE5A46334602F02D
:1045600017FD804669488A465A46334604217844F6
:10457000FFF7EEFE5A46334602F00AFD00223B46A4
:1045800002F0B6FA02460B464046514602F06CFB7A
:104590002A46234602F0FCFC06B02A462346BDE824
:1045A000F04D02F0A5BA284624F0004100223D4615
:1045B0003B4602F0EBFD4FF0FF3203F0F6FA064601
:1045C000024653480F460B4606217844FFF7C0FECB
:1045D00032463B4602F0DCFCCDE900014D48324654
:1045E0003B4604217844FFF7B3FE32463B4602F0D7
:1045F000CFFC00222B4602F07BFA83460291304624
:10460000394602F007FA804643480D46504517DC0C
:10461000DDE900015A46029B02F026FB42462B468A
:1046200002F0B6FC42462B4602F062FA012203F089
:10463000BCFA304A304B02F09BFE304A304B4CE023
:104640004FF0000A52460B46404602F051FACDE9BF
:10465000031052462B461046194602F099FC32468A
:104660003B4602F093FDDDE9033202F0FDFA064617
:104670000F46DDE900015A46029B02F0F5FA834637
:10468000009101223046394603F08FFA194A1A4B3D
:1046900002F07CFD06460F4601224046294603F003
:1046A00084FA5A46009B02F073FC32463B4602F005
:1046B0005FFE06460F4601225046294603F075FA72
:1046C0000E4DDFF858802A46434602F05FFD324621
:1046D0003B4602F05BFD2A46434602F057FD002CA4
:1046E000D8BF81F0004106B0BDE8F08D0000F03F7A
:1046F0000000F07F075C143326A6913C182D44542B
:10470000FB21F93F0000E03F885D00009E5D000056
:10471000125D0000285D00003333EF3FFB21E93FCD
:104720002DE9F84F04460D4621F0004000917349F1
:10473000814211DC7249884201DC06D12CB120464D
:104740002946BDE8F84FFFF758BE6E48002DCCBF94
:104750006D496E49BDE8F88F6D49814211DD6D49A3
:104760008142D8BF4FF0FF366DDD20462946FFF766
:10477000CBFD042808BFFFF74BFE20462946BDE8C5
:10478000F88F6549654F25F00045814233DD644966
:10479000814219DD002632464FF0804320462946EB
:1047A00002F0A6F980468A4601222046294603F0F7
:1047B000FCF900223B4602F0DBFD4246534602F084
:1047C00053FA04460D463EE001260022BA463B4617
:1047D0002046294602F08CF980460F4600225346B7
:1047E0002046294602F0C4FD42463B4602F03CFA10
:1047F00004460D4627E04B4981421BDDDFF828A126
:104800000226002253462046294602F0C1FB002220
:104810003B4602F06DF980460F4600225346204683
:10482000294602F0A5FD42463B4602F01DFA044629
:104830000D4608E0032622462B4600203B4902F0A5
:1048400013FA04460D4622462B461046194602F03E
:104850009FFB8B46824602460B4602F099FB0746B9
:104860000246334888460B4606217844FFF770FD20
:1048700052465B4602F08CFB82462E488B463A46F7
:10488000434605217844FFF763FD3A46434602F06C
:104890007FFB02460B46002E504659460CDA02F0CA
:1048A00027F922462B4602F073FB01B022462B4625
:1048B000BDE8F04F02F06ABC02F01AF922462B461E
:1048C00002F066FB1C4A7A4402EBC603D3E90023DC
:1048D00002F04EFD22462B4602F04AFD174A7A446A
:1048E00002EBC603D3E9002302F050FC009A002A31
:1048F000B8BF81F00041BDE8F88F0000000010440F
:104900000000F07F182D4454FB21F93FFB21F9BF33
:104910000000DC3F0000203E0000F33F0000F03FBD
:104920000000E63F008003400000F83F0000F0BFB9
:104930002A5B0000E85A0000865A00004E5A000028
:104940002DE9F04D9446CCF1000423F000464CEAEA
:104950000404594F46EAD4749A46884621F000422E
:10496000BC4206D8454240EA050442EAD474BC423F
:1049700004D9BDE8F04D6246FFF742BDAAF14055AB
:10498000A5F17F6555EA0C040BD0022404EAAA7451
:104990004A4DDFF82CE144EAD87452EA000B04D007
:1049A0000CE0BDE8F04DFFF7BBBE002C14BF012C9E
:1049B000BDE8F08D022C30D0032C32D056EA0C0B1F
:1049C0000AD0BE4220D1BA4209D126F0804622F058
:1049D00080423346114617E000291ADB25E0DFF854
:1049E000E4B0FB44002C04BFDBE90001BDE8F08D1E
:1049F000012C02BFDBE9000181F00041BDE8F08D30
:104A0000022C0AD0032C0CD0BA4212D1B8F1000FFC
:104A10000BDA2A482C49BDE8F08D28462B49BDE821
:104A2000F08D28467146BDE8F08D24482849BDE840
:104A3000F08D921B12153C2AC4BF204F244E10DC6F
:104A4000BAF1000FBEBF12F13C0F00273E4608DB53
:104A5000624602F009F921F00041FFF761FE0746C6
:104A60000E4694B1012C08BF86F000460DD0194ABD
:104A7000194B022C3846314615D002F079FC2A46F3
:104A8000BDE8F04D114B02F073BC002213463846CE
:104A9000314602F041FA04BF0220FBF77AFD3846A6
:104AA0003146BDE8F08D02F063FC2A46BDE8F04DCA
:104AB000064B02F06BBB00000000F07F182D445441
:104AC000FB2109C0E2590000FB21F9BFFB2109408D
:104AD000FB21F93F075C143326A6A13C71B54FF4C6
:104AE00061754FF0E023104E009819E02C46A0426B
:104AF00000D804469869614201EBC10110EBC10185
:104B000005D49A69824208DA8A42FADA05E08A19FB
:104B100099698142FCDD9142FADC0098001B00900B
:104B20000028E3D178BD00004019010008B560B14C
:104B300020208DF8000028208DF8010030208DF80D
:104B4000020038208DF8030004E0A3220421684607
:104B5000FBF771FC6A46042140F69E2001F0C4FE7A
:104B600001F082FB08BD00003EB5044602208DF82E
:104B70000000CA208DF80100E3208DF80200092012
:104B80008DF803006A460421682001F0ADFEA320E1
:104B90008DF80000610609D5C0218DF80110C821EB
:104BA0008DF80210C2218DF8031005E08DF8010088
:104BB0008DF802008DF8030014F4C07F09D0C421E1
:104BC0008DF80410CC218DF80510C6218DF8061043
:104BD00005E08DF804008DF805008DF806008DF8CD
:104BE00008008DF807008DF809006A460A2140F692
:104BF000A72001F079FEA0074FF0D80503D02020B0
:104C00008DF8000001E08DF800506A46012140F661
:104C1000B62001F069FEA00601D5012000E00020C9
:104C200000F08EF814F4C07F1ED0E0050AD5B22043
:104C30008DF800008B208DF80100B6208DF8020061
:104C40009B2009E0B0208DF8000080208DF8010045
:104C5000B4208DF8020090208DF803006A460421EC
:104C600040F6A22001F040FEE1074FF40B6022D095
:104C7000F8218DF800106A46012101F035FEFA2175
:104C8000072000F049FB072000F014FB012000F092
:104C900031FB642000F0D4FB4FF4FA7000F0E0FB2D
:104CA000C821254800F0CEFA282000F0E3FA0A20B7
:104CB00000F0F0FA05E08DF800506A46012101F09D
:104CC00013FEA00703D5D9208DF8000001E08DF870
:104CD00000506A46012140F23D7001F005FE600778
:104CE00001D5012000E0002000F048F8E00601D5E1
:104CF000012000E00020FFF719FF104D44F00800EC
:104D0000688101F0B1FA0020A873600601D5062081
:104D1000A87314F4C07F02D0A87B801DA87314F080
:104D2000140F02D0A87B1030A873A00702D0A87B74
:104D3000001DA87300203EBD09E3CA0288020020BE
:104D40000EB54FF4976310B106A107C901E008A2A0
:104D500007CA8DE807006A460921184601F0C4FD1C
:104D60000EBD0000B8AAB38DB4980D355D000000EB
:104D7000B8AAAAAAB088C3C5C700000008B560B128
:104D8000C0208DF80000C2208DF80100C4208DF8ED
:104D90000200C6208DF8030004E08B22042168463F
:104DA000FBF749FB6A46042140F6982001F09CFD80
:104DB00001F05AFA08BD0000C8234FF4806202498E
:104DC00040F6F63001F032B9FC7C00082DE9FF4FC7
:104DD00089B01746DDE916520024544E88468146B4
:104DE0002C80A246B07B694601F0CCF94FF0FF3B26
:104DF00018B158460DB0BDE8F08F708910F0140F4F
:104E00004CD0BDF800109DF8022049BA090441EACF
:104E100002239DF803100B433B60BDF804109DF87E
:104E2000062049BA090441EA02229DF807101B1422
:104E30000A437A60BDF808109DF80A4049BA09048F
:104E400041EA04219DF80B4012142143B960BDF8DA
:104E50000C409DF80EC064BA240444EA0C2C9DF862
:104E60000F4009144CEA040CC7F80CC04FEA2C4759
:104E70005B43494302FB023207FB07111144102434
:104E8000A1F17061B1F1007F04D901F0EDF9A5F84D
:104E900000A0AEE7298841F4807129804206694666
:104EA00011D50A19A41D13885BBAA8F800305388DD
:104EB0005BBAA8F80230928852BAA8F804202A886F
:104EC00042F008022A8010F4C07F11D00A19A41DF4
:104ED00013885BBAA9F8003053885BBAA9F802308E
:104EE000928852BAA9F804202A8842F070022A80D7
:104EF000800716D00C44E07800F0C00500F03F01B8
:104F00006078C00706D0C80801F007013268491C64
:104F100002B190476078000703D5716809B1A8090C
:104F200088470C9800F000FE002063E7880200200C
:104F30002DE9FF41044603A800F060FFBDF80C0016
:104F4000410CC3032F48008900F0030254F822509B
:104F5000420700D56D42C0F3C102860654F82220F4
:104F600000D55242C0F38116C00554F8264000D542
:104F70006442A5FB0367E81700FB037005FB010013
:104F8000850045EA9670A2FB0367D51705FB0375FC
:104F900002FB0152950045EA9672A4FB0367E517F0
:104FA00005FB037304FB01318B0043EA9671030E8A
:104FB0008DF80030030C8DF80130030A8DF80230B3
:104FC0008DF80300100E8DF80400100C8DF805000C
:104FD000100A8DF80600080E8DF80800080C8DF8F0
:104FE0000900080A8DF80A008DF807208DF80B10CB
:104FF0006A460C214FF4257001F076FC04B0BDE840
:10500000F08100008802002030B5044613A285B06C
:1050100007CA8DE807004FF0FF35C82C16D8C82006
:10502000B0FBF4F1491E080A8DF80C008DF80D1044
:1050300003AA022140F2162001F056FC30B96A465C
:105040000C2140F6C12001F04FFC10B1284605B0FC
:1050500030BD054884810020F9E70000FEF2ABC4B2
:10506000AAF1DFDFBBAFDFDF88020020F8B53049EF
:10507000098901F0030250F822404A0700D5644232
:10508000C1F3C1028B0650F8222000D55242C1F371
:10509000811350F82330C80500D55B42254984FBB5
:1050A0000140850045EA947082FB0142A40F44EA66
:1050B000820483FB0121950F45EA8105010E8DF8DD
:1050C0000010010C8DF80110010A8DF802108DF806
:1050D00003006A4604214FF4747001F005FC4FF0A0
:1050E000FF3688B9200E8DF80000200C8DF80100E5
:1050F000200A8DF802008DF803406A4604214FF41F
:10510000757001F0F1FB08B13046F8BD280E8DF83E
:105110000000280C8DF80100280A8DF802008DF897
:1051200003506A4604214FF4767001F0DDFBF8BDB0
:105130008802002009E3CA022DE9FF4104463CA091
:1051400004F00303006802903AA0006803903AA0BC
:1051500006683AA0056802A8C15C8DF80010C4F387
:10516000C101425C8DF80120C4F38112805C8DF88E
:10517000020003A8C35C8DF80430415C8DF8051073
:10518000805C8DF806006A46032140F2264001F05B
:10519000ABFB4FF0FF37E0BB01AA032140F22A40EE
:1051A00001F0A2FBA8BBCDE9006560070BD59DF817
:1051B000000040F001008DF800009DF8040040F070
:1051C00001008DF80400A0060BD59DF8010040F009
:1051D00001008DF801009DF8050040F001008DF8F8
:1051E0000500E0050BD59DF8020040F001008DF8A8
:1051F00002009DF8060040F001008DF806006A46A6
:1052000003214FF4886001F06FFB10B901AA03215C
:1052100000E004E040F2314001F066FB18B138468E
:1052200004B0BDE8F081064804810020F8E70000E2
:105230004CCD6C000CC92C00365676002646660014
:10524000880200204FF47A7290FBF2F008B54843D0
:10525000010E8DF80010010C8DF80110010A8DF877
:1052600002108DF803006A4604214FF4AE7001F07D
:105270003BFB08BD0521B0FBF1F008B5010A8DF834
:1052800000108DF801006A4602214FF4AD7001F064
:105290002BFB08BD0521B0FBF1F008B5010A8DF824
:1052A00000108DF801006A4602214FF4AC7001F045
:1052B0001BFB08BD08B500218DF80010C10702D006
:1052C00030218DF80010810705D59DF8001041F0C0
:1052D0000C018DF80010400705D59DF8000040F046
:1052E00003008DF800006A4601214FF4A47001F01C
:1052F000FBFA08BD08B560B1042800D90420401E9F
:105300008DF800006A46012140F24F1001F0ECFADE
:1053100008BD0120F3E700002DE9FC4105464007E8
:105320004FF0FF367CD0B1F5C86F79D8084602F04F
:10533000B3FA3E4902F09AF9074601A800F040FD91
:105340009DF80400022806D004280DD008282ED08D
:10535000102865D134E00E21384602F054FC02F0EA
:1053600063FA84B2324907E00D21384602F04BFC63
:1053700002F05AFA2F4984B2384602F0A1FA02F03C
:1053800053FA210A8DF8001080B28DF80140010A0D
:105390008DF802108DF80300E8076C4620D02246F5
:1053A00002214FF4EA7001F09FFAC8BB11E00C2112
:1053B000384602F028FC02F037FA84B21E49DBE7D7
:1053C0000B21384602F01FFC02F02EFA84B21B4972
:1053D000D2E7A21C02214FF4927001F085FAF8B9CD
:1053E000A8070DD56A4602214FF4EC7001F07CFA53
:1053F000B0B9A21C02214FF4947001F075FA78B98B
:10540000680710D56A4602214FF4EE7001F06CFA7D
:1054100030B9A21C02214FF4967001F065FA10B168
:105420003046BDE8FC810020FBE700000000484357
:10543000000040460000C045000040450000C04458
:105440000521B0FBF1F008B5010A8DF800108DF8C8
:1054500001006A4602214FF4EF7001F045FA08BDE1
:105460000521B0FBF1F008B5010A8DF800108DF8A8
:1054700001006A4602214FF4ED7001F035FA08BDD3
:105480002DE9FE430646264801AB042240680D2163
:105490000078FDF78DFF10B10720BDE8FE839DF871
:1054A00004101C2000EAD1029DF80710DFF8749068
:1054B000C1F301131A438DF800209DF80520C1F3B4
:1054C000810300EAD2021A438DF801209DF80620DC
:1054D00001F0030100EAD20008430024124F8DF8C6
:1054E0000200A0466D46285D10B146F824900AE0FF
:1054F00046F824800DE000BF56F82400394602F03B
:10550000DFF946F82400285D401E10F0FF00285502
:10551000F2D1641CE4B2032CE5D30020BDE7000007
:10552000240000207B14AE3E1D5A843F2DE9FE4F1F
:1055300005460120C14E8DF800004FF000088DF89F
:10554000018030680C461746817C70686B460222E9
:105550000078FDF7BAFF4FF0FF3A00287AD1C82053
:10556000FCF7A2F88DF8008030686B460122C17B01
:1055700070680078FDF7A9FF0028EFD130686B460E
:105580000122417970680078FDF79FFF0028E5D17E
:1055900030686B460122817C70680078FDF795FFCA
:1055A0000028DBD130686B460122C17D706800782D
:1055B000FDF78BFF0028D1D130686B4601220179BD
:1055C00070680078FDF781FF0028C7D14FF00C0903
:1055D0008DF8009030686B46012201797068007880
:1055E000FDF773FF002835D10F20FCF75DF8B06A96
:1055F0006B460122407A8DF800003068817870682F
:105600000078FDF762FF002824D1B06A6B460122C2
:10561000007A8DF800003068417870680078FDF7F6
:1056200054FF002873D1B06A807A0FB140F0E000D7
:105630008DF8000030686B4601228179706800782F
:10564000FDF743FF002862D12FB1B06AC07A40F065
:10565000E00001E04AE018208DF8000030686B4659
:105660000122C17970680078FDF72FFFF0BB17B1F8
:10567000C820FCF719F840208DF8000030686B4610
:105680000122017970680078FDF71FFF70BB782058
:105690008DF8000030686B4601224179706800780F
:1056A000FDF713FF10BB3220FBF7FEFF8DF80080E3
:1056B000306847466B464179706801220078FDF7F3
:1056C00004FF98B931687068B046897A00786B46F3
:1056D0000222FDF76DFE48B9BDF80000AF6040BA88
:1056E000B0FBF9F06F60C6B22F6000E00FE0A7607A
:1056F00067602760002739E0D8F80010D8F8040068
:105700006B46C97A00780C22FDF752FE10B1504664
:10571000BDE8FE8FBDF80000236840BA00B2BDF8B6
:105720000210BDF804201844206049BA606809B22C
:105730000844606052BAA06812B21044A060BDF87C
:1057400006002B6840BA01B2BDF80800BDF80A2077
:105750001944296040BA696800B20844686052BAC6
:10576000A86812B210447F1CFFB2A860B742C3D32E
:1057700028688322C117090441EA1041000400236C
:10578000FAF732FD32460023FAF72EFD28606868EA
:105790008322C117090441EA104100040023FAF7EB
:1057A00023FD32460023FAF71FFD6860A8688322B4
:1057B000C117090441EA104100040023FAF714FD5F
:1057C00032460023FAF710FDA86020684FF4006508
:1057D000C117090441EA104100042A460023FAF7E0
:1057E00003FD32460023FAF7FFFC206060682A467A
:1057F000C117090441EA104100040023FAF7F4FC40
:1058000032460023FAF7F0FC6060A0682A46C11710
:10581000090441EA104100040023FAF7E5FC32468E
:105820000023FAF7E1FCA060002802DDA0F580303B
:1058300001E000F58030A060002069E7240000202E
:105840002DE9F84F81462E488846002540686B4672
:10585000032200780D21FDF7ABFD10B10720BDE854
:10586000F88F9DF80000002400F01F008DF8000064
:105870009DF801006FF00F0B00F01F008DF8010084
:105880009DF802006E4600F01F008DF802004FF0F8
:10589000010A00BF59F8241058F82400081A00D54E
:1058A000404201F0E1FF594602F0ADF90746305D94
:1058B000C0B1144802E0144902F002F8315D491EFB
:1058C00011F0FF013155F6D10146384601F0CEFE08
:1058D0004FF07E5102F0C0F80C4920F000408842A1
:1058E00005DC07E00A483844B0F1D97F02D90AFA4A
:1058F00004F00543641C032CCCDB2846AFE7000012
:10590000240000200000C84154E3853F295C0F3E7D
:105910000000E0BE00B5024600F00DF80346D01CC2
:1059200000F009F843EAC003901D00F004F843EAD0
:10593000801080B200BD90F90010002902DD4FF008
:105940000000704702DA4FF00400704790F9011030
:10595000002902DD4FF00100704702DA4FF0050028
:10596000704790F90200002802DD4FF002007047F6
:1059700002DA4FF0060070474FF007007047000052
:10598000FCF786F9FEF7B6F9FDF7C8FDFDF744FE12
:10599000FDF7F0FEFDF760FEFDF7B8FEFDF71EFF18
:1059A000FDF752FFFDF7E3FFFDF7AAFC00F0B6F9A3
:1059B000FDF7A6FFFBF7F0FDFBF7DCFD012339A2A5
:1059C00019461846FEF7F8F84FF4FA70FBF76CFE2C
:1059D000FDF7BAFF4FF4E1500146FDF753FF0022F7
:1059E00011461720FCF7B2F91720FCF7A1F9324C49
:1059F000324D334E334FDFF8D080DFF8D0902E4A4F
:105A00002E492F4800F0BCF8306801F09BFD02469B
:105A10000B462FA13248FAF70BFC01210223304A32
:105A20000846FEF7C9F8286801F08CFD02460B46CF
:105A30002CA12B48FAF7FCFB0223294A0121184626
:105A4000FEF7BAF8206801F07DFD02460B4629A159
:105A50002348FAF7EDFB0223214A01210320FEF738
:105A6000ABF8FDF78DF9386801F06CFD02460B4686
:105A700024A11B48FAF7DCFB0223194A0121042068
:105A8000FEF79AF8D8F8003023A11548D9F800207D
:105A9000FAF7CEFB0223124A01210520FEF78CF80B
:105AA000ADE70000496E697469616C2073756363CA
:105AB000657373210000000098000020940000200E
:105AC00090000020200000201C0000201800002072
:105AD00050697463683A252E326620202020000029
